1000001250001              EKMEK               00000007502AD  E0000000000000075
1000002250002              KIBRIT              00000002502AD  H0000000000000025
1000003250003              CAKMAK              00000010002AD  H0000000000000100
1010004250004              SAKIZ               00000001004AD  H0000000000000010
1010005250005              TOPITOP             00000003504AD  H0000000000000035
1010006250006              PET BARDAK          00000001005AD  H0000000000000010
1010007250007              PET TABAK           00000001005AD  H0000000000000010
1010008250008              YUMURTA ADET        00000002504AD  H0000000000000025
1010009250009              LÝMON ADET          00000002504AD  H0000000000000025
1010010250010              KIVIRCIK            00000012504AD  H0000000000000125
1010011250011              MARUL               00000013504AD  H0000000000000135
1010012250012              MAYDANOZ            00000009504AD  H0000000000000095
1010013250013              TERE                00000011504AD  H0000000000000115